:10000000D6C118951895189518951895189518959E
:100010002CC141C1189518951895189518951895E3
:10002000189518951895189518951C00FF00000054
:100030000F00F0009E059A928A927A926A925A92E2
:100040004A92BA93AA939A938A93C801D901542EDB
:10005000852E0FEF602E00E0702E08E0402E4AE063
:1000600050E060E070E08C019D01AED1405DF30195
:1000700041933F014AE050E060E070E08C019D0157
:10008000A3D1C801D9014A9451F7A0E05520C1F08D
:1000900088E090E09924881990406A2E772488207F
:1000A00029F06816790611F40CE23ED061947908C3
:1000B000F301E150FF4F078137D0A395A51568F3F1
:1000C00089919991A991B9914990599069907990A4
:1000D00089909990089515ED1A95F1F70000A89868
:1000E00015B31F70007F102B15BB17C015ED1A95A7
:1000F000F1F70000A89825B32F70102F107F212B47
:1001000025BBAA9A1AE01A95F1F700C0AA980295A1
:1001100025B32F70007F202B25BBAA9A0AE00A95F1
:10012000F1F700C0AA98089515ED1A95F1F70000AF
:10013000A89AE1CF04B3006F04BB05B3006F05BB01
:1001400004B3076004BB05B3076005BBA9980FEFB4
:1001500013EF21E0015010402040E1F700C0000003
:1001600000E3B9DF0FE31CE901501040E9F700C0DC
:10017000000000E3B0DF0FE91FE001501040E9F795
:1001800000C0000000E3A7DF00E2A5DF08E2AEDF69
:1001900008E0ACDF0CE0AADF01E0A8DF0FE31FE11D
:1001A00001501040E9F700C0000006E09FCFBA936D
:1001B000AA93D80102C01196B7DF0C910023D9F79A
:1001C000A991B9910895B6DF19D000E88FDF00EF4B
:1001D00010E0EDDF789408B705FFFDCF21D00FEFD9
:1001E00013ED20E3015010402040E1F700C0000073
:1001F00008B705FFFDCF14D05DD0EDCF09B704607F
:1002000009BF00E00FBD01E40EBD00E010E00DBD30
:100210000CBD09B7016009BF07E003BF12BF089515
:10022000F89402B7E7E0F1E0208131814CB55DB58B
:10023000628173817894028413840086118610E0B1
:1002400002871387068517850487158726873787D2
:1002500002891389008B118B628B738B0681178146
:1002600004831583468357830895FA93EA932A9368
:100270001A930A932FB77894E7E0F1E00281138193
:100280000F5F1F4F028313832FBF0991199129918B
:10029000E991F9911895FA93EA932A931A930A939C
:1002A0002FB7E7E0F1E0008111810F5F1F4F00835E
:1002B0001183EACFFA92EA92DA92CA92BA92AA9299
:1002C0009A928A924A92BA93AA938A938FB7F89491
:1002D0002897E7E0F1E00089118922893389201B02
:1002E000310B228B338B86809780590104811581D5
:1002F00020E0801A910AA20AB20A04851585268593
:100300003785201B310B26873787C284D384EE24A0
:10031000FF24132F30E0D20EE11EFF1C0085118553
:10032000C01AD10AE30AF30A07E8E0DE8601970162
:1003300040E050E060E070E04424A7EFB0E067D018
:1003400088829982AA82BB824C824D824E824F82E1
:10035000DE0199D051E048E06EDE08ECC7DE50E0E7
:1003600048E08401950167DE00ECC0DE50E047E024
:100370008601970160DEE7E0F1E044864586468627
:100380004786408A418A428A438A28968FBF89914C
:10039000A991B991499089909990A990B990C990E3
:1003A000D990E990F990089500008895FECF0FEE5E
:1003B0000DBF00E00EBFC0EAD0E0C7D0002309F0B7
:1003C000D4D001DFF1DFF0CF002411241001E0E2EE
:1003D000EA9592F0001F111F221F331F001C111CF1
:1003E000221C331C041615062606370688F3041A49
:1003F000150A260A370AECCF001F111F221F331FD0
:10040000A001B101009510952095309508958A932B
:100410009A934A925A926A92AA93BA930024112408
:1004200010012001F00188E06D9098E0662049F409
:10043000762F652F542F432F322F212F102F002777
:1004400014C0669440F4000E111E221E331E441E7A
:10045000551EE61FF71F000F111F221F331F441FD9
:10046000551F661F771F9A9561F78A95E9F68001F7
:100470009101A201BF01B991A99169905990499048
:1004800099918991089502D02ED014C04A928A93EE
:100490009A93AA93BA938D914D90ED91FD910D9001
:1004A0001D902D903C900895B991A99199918991B1
:1004B000499008950991199129913991499159913A
:1004C00069917991001F111F221F331F441F551F6F
:1004D000661F771F00951095209530954095509593
:1004E00060957095E1CF0F931F932F933F934F9398
:1004F0005F936F937F93002711279801A801B8019C
:10050000B7E0A8E09F91AA95DAF0991F001F111F8C
:10051000221F331F441F551F661F771F081714051E
:100520002E073F07400551056205730560F3081B60
:1005300014092E0B3F0B4009510962097309E3CFDF
:100540009A93A8E0BA95EAF6089501E0089520E0AC
:1005500006D0E9F70895259102D0E9F708952D9383
:1005600001501040202F212B08958AE290E0FC01D9
:1005700005911491FC013296A591B491FC01349639
:1005800025913491422F432B19F0F901E4DF01C08A
:10059000DEDF069610E08633910748F30895467231
:0D05A00065713A2000006889090000000024
:00000001FF
:00000001FF
