:0800000035C0FECFFDCFFCCF9F
:10000800FBCFFACFF9CFF8CF46C149C1F5CFF4CF2E
:10001800F3CFF2CFF1CFF0CFEFCFEECFEDCFECCFE4
:10002800EBCF00000000467265713A2000000A001C
:1000380000000000000000000000000000000000B8
:1000480000000000000000000000000000000000A8
:1000580004000A002A000700E0002E000100FF004B
:1000680036000000F894EE27ECBBF1E0FBBFEBBFD5
:10007800E5BFF8E1F1BDE1BD8DE0A2E0BB27ED935E
:100088008A95E9F780E092E0A0E6ED930197E9F719
:10009800E8E5F0E085919591009761F0A591B5911B
:1000A80005901590BF01F00105900D920197E1F7B9
:1000B800FB01F0CFEFE5EDBFE2E0EEBFC0EED0E030
:1000C8008CC089D110E01830A0F4E12FF0E0E9519C
:1000D800FF4FFF93EF9382D123D2E05DAF91BF91A1
:1000E800EC937CD1F9D1EB83FC836D837E831F5F16
:1000F800EACF10E0EA811E1798F4E981E03039F080
:10010800A981E8E0EA1BE11711F4ACE224D0E7E0AA
:10011800E11BF0E0E951FF4FA0811DD01F5FEACF3E
:10012800188127960895AA93E881E29520C053D1B3
:100138005ED1A89860D1188122960895AA9357D1C4
:10014800A898A88148D157D1A981EDDFE98353D177
:10015800188122960CC0AA934AD1A89AA8813BD1AB
:100168004AD1A981E0DFE98346D1188122962196F8
:100178000895E4B3E06FE4BBE5B3E06FE5BBE4B337
:10018800E760E4BBE5B3E760E5BBA998A8E240D126
:10019800AAE03ED1A1E03CD1A0E2C9DFA8E2CEDFCF
:1001A800A8E0CCDFACE0CADFA1E0C8DFA2E0B0E0A5
:1001B800E5D2A6E0C3DF0895BA93AA931A93A9815A
:1001C800BA81EC91E03031F01D91A983BA83A12F57
:1001D800C2DFF5CF188123960895CBDF14D0A0E8AD
:1001E800ADDFA0EEB0E0E8DF7894E8B7E5FFFDCF3B
:1001F8001DD0A8EEB3E0C2D2E8B7E5FFFDCF16D018
:100208005DD0F3CFFFCFE9B7E460E9BFE0E0EFBD31
:10021800E1E4EEBDE0E0F0E0FDBDECBDE9B7E16092
:10022800E9BFE7E0E3BFE0E0E2BF089522971ED10F
:10023800F89412B74091EF005091F0002CB53DB5FD
:10024800E091F100F091F200EE83FF837894E09161
:10025800F500F091F600E093F300F093F400E12F3D
:10026800F0E0E093F500F093F600D6D0E093F700C5
:10027800F093F8004093F9005093FA00D2D0E0933D
:10028800FB00F093FC00EE81FF81D0D0560169019C
:10029800F4D028960895CFD0A1EFB0E003C0CBD01A
:1002A800AFEEB0E0ED91FD913196FE93EE93E991BA
:1002B800EFBFF991E991B991A99118952C97F89404
:1002C800A091FB00B091FC00ACD0EA1BFB0BAED0B8
:1002D800A091FD00B091FE00B5D0E0E0F0E061E053
:1002E80070E0DAD0D601AED0AE0FBF1F861F971FC1
:1002F800F501ABD0A887B9878A879B87A091F700BB
:10030800B091F80089D0EA1BFB0BE093F900F09359
:10031800FA00A091F900B091FA0094D0E0E0F1E081
:1003280060E070E0B9D0A091F500B091F6008AD0F5
:10033800AE0FBF1F861F971FE091F300F091F400E6
:1003480084D0EAE0F0E060E070E0A6D0EC83FD83C2
:100358006E837F8381D051D1A0E0B4E284E79BE42F
:100368007BD1DF01CB017DD048D1C4D1DE010ED1D4
:10037800ED93FD936D937C93A7E8E0DEE881F98126
:100388006A817B81D1D0E8E0EA93A1E09ADEA8EC0B
:10039800D5DE67D0C9D0E8E0EA93A0E092DEA0EC11
:1003A800CDDE5AD0C1D0E7E0EA93A0E08ADEE0E0F3
:1003B800E093F700E093F800E093F900E093FA0087
:1003C800E093FB00E093FC00E093FD00E093FE0067
:1003D80078942C960895AA931A930895AB81BC81BA
:1003E8008D819E81EAE0F0E060E070E0089585ED9F
:1003F8008A95F1F70895E5B3EF701E2FE981E07F44
:100408001E2B15BBAA9A8BE08A95F1F7AA98089536
:10041800B0E0B4D1A0E38BCEE091F900F091FA00FE
:100428000895E091FD00F091FE000895E093FD002D
:10043800F093FE000895AA93BA93EA93FA93EFB75C
:10044800EA93089588279927089566277727AE1B8A
:10045800BF0B860B970B0895EC81FD816E817F8120
:100468000895E885F9856A857B8508955A934A93A6
:100478003A932A931A930A9308955D814C813B819C
:100488002A81198108810895F09560957095E19504
:10049800FF4F6F4F7F4F08957A9F702D6B9F700DA0
:1004A800F89F700DE99F700D6A9F602D710DFB9F7D
:1004B800600D711DE89F600D711D8827FA9FF02D52
:1004C800610D781FEB9FF00D611D781FEA9FE02DED
:1004D800F10D681F781F08953F934F935F93002491
:1004E8001124A00130E2AA0FBB1F881F991F001C0E
:1004F800111C441F551F0E1A1F0A460B570B28F4D0
:100508000E0E1F1E461F571F01C0A1603A9559F7CE
:10051800FD01BC01D001CA015F914F913F9108953F
:10052800DBDFFD01BC0108957A936A93FA93EA939D
:100538000895552342F4503811F4E0FF04C0319671
:10054800691F791F6BF050E8572711F45F9373C048
:100558005F3F31F0660F000C57956795752F08952A
:100568005F9300200AF072C06BC050E8192E152264
:10057800880F991F9527550F879550E8072E052254
:10058800660F771F7527550F67950895689401C002
:10059800E8945F93F2DF703818F07F3F08F44BC09F
:1005A80056E1571BAAF4519558300EF4593030F0E3
:1005B800EFEFFFEF6FEF7FE777F91AC07727552343
:1005C800B9F0EE0FFF1F661F771F5A95D1F710C0BD
:1005D8007727583028F0EF2FF62F672F5850F9CF8C
:1005E800552331F076956795F795E7955A95D1F7A4
:1005F80000200AF449DF5F910895689401C0E894E7
:10060800309760407040B1F0002426F0772312F450
:1006180000943ADF172E7EE1112032F07A95EE0F22
:10062800FF1F661F111CF9CFEF2FF62F612D5F9367
:100638008ADF5F910895EE27FF27BF015F91089534
:10064800EFEFFFEF6FE77FEF5F910895EFEFFFEFB9
:100658006FE77FE75F9108955F9387DF703859F3FD
:10066800903849F301240894791F23F424F30020D7
:100678003AF3ECCF0F921F932F933F934F93112789
:1006880022279927689FA0018F9F302D410D591F60
:100698006B9F300D411D591F8E9F27D0BF9F25D0BE
:1006A8006A9F23D0BE9F1DD0AF9F1BD0AE9F110D58
:1006B800291F391F491F591FE32FF42F652F522F68
:1006C8004F913F912F911F910F9066232AF0550F5C
:1006D800EE1FFF1F661F02C073954BF22ADF5F9162
:1006E8000895100D211D391F02C0200D311D491F0D
:1006F800591F08955F9339DF703821F411200AF4E7
:100708009FCFA4CF903809F496CF01240894970B73
:100718001BF4D4F30020F3CF792F1F932F933F932B
:100728004F931124112722273327A90190E2AE17EE
:10073800BF078607410730F0AE1BBF0B860B410B86
:10074800089401C08894551F221F331F111CAA1F2B
:10075800BB1F881F441F9A9551F7F901612D4F91CE
:100768003F912F911F91662332F0550FEE1FFF1F07
:10077800661F7A954BF2DDDE5F910895109639F089
:10078800A89580EA9FE00197F1F71197C9F70895B6
:00000001FF
