:1000000000C11895189518951895ACC018951895B5
:100010001895189518951895189518951895189578
:10002000189518951895189518950C00F000000073
:10003000BA93AA939A938A93C801A0EFB0E01FD015
:100040004C9322D0C8011BD0FD01418321D04283B3
:100050001FD0438319D0005DE0EF048321D0FD0160
:1000600003811ED0FD0102811BD0FD01018118D04A
:100070000C9116D089919991A991B99108954AE06E
:1000800050E0CCD0405D08954AE050E08C01C6C0FD
:10009000FBDFC801F4DFE0EF089505D0AB9808C09E
:1000A00002D0AB9A05C01AE61A95F1F700C0089580
:1000B00008BBAD9A05E00A95F1F70000AD980895E8
:1000C00007B30FEF07BB08B30FEF08BB04B3086318
:1000D00004BB05B3086305BBAC980FEF19EF000034
:1000E00001501040E1F700C000C008E3D6DF0CE08B
:1000F000D4DF01E0D2DF0FE91FE001501040E9F743
:1001000000C0000006E0C9CF9A938A930FEF02BBAC
:1001100000E001BBD5DF1CD078940FE31DE023E0A5
:10012000015010402040E1F700C000005CD0C80141
:1001300000ECB3DF8C017CDF00E8AFDFAC0160E0F6
:1001400070E000E012E12AE730E07CD071DFE5CF1B
:1001500000E209BF00E00FBD01E40EBD00E00DBDEF
:100160000CBD0895AA939A938A93FA93EA934A93BB
:100170003A932A931A930A934FB700E00DBD0CBD32
:10018000E5EFF0E086B597B58296A0E00081118199
:1001900022813381080F191F2A1F3A1F0083118300
:1001A00022833383068103950683083059F4008146
:1001B00015D014D013D004831583A083A183A28308
:1001C000A383A6834FBF0991199129913991499130
:1001D000E991F99189919991A99118953695279569
:1001E0001795079508953FB7F894E5EFF0E004817F
:1001F000158120E0248325833FBF08950000889562
:10020000FECF0FEE0DBF00E00EBFC0EAD0E03DD044
:10021000002309F04AD078DFF1DFF0CF0024112469
:10022000EFE0001F111F001C111C0416150610F032
:10023000041A150AEA95AAF7001F111FA0010095DC
:1002400010950895002411241001E0E2EA9592F03F
:10025000001F111F221F331F001C111C221C331CE6
:10026000041615062606370688F3041A150A260A08
:10027000370AECCF001F111F221F331FA001B1014D
:100280000095109520953095089501E0089520E09F
:1002900006D0E9F70895259102D0E9F708952D9346
:1002A00001501040202F212B08958AE290E0FC019C
:1002B00005911491FC013296A591B491FC013496FC
:1002C00025913491422F432B19F0F901E4DF01C04D
:0E02D000DEDF069610E08033910748F30895B4
:00000001FF
:00000001FF
