:1000000014C02EC02DC02CC02BC02AC029C028C0AF
:1000100001C317C325C024C023C022C021C020C0F3
:100020001FC01EC01DC01CC01BC011241FBECFE5B9
:10003000D2E0DEBFCDBF10E0A0E6B0E0EAE6FBE034
:1000400002C005900D92A836B107D9F710E0A8E6D6
:10005000B0E001C01D92A838B107E1F702D083C516
:10006000CFCFCF93DF93B5D188D280E813D180E68C
:1000700090E02BD17894C0E9D1E008B605FEFDCF21
:100080008BD220E030E0CE010197F1F72F5F3F4F98
:1000900087E220313807B9F708B605FEFDCF7CD2DC
:1000A000E7D2EBCFCF92DF92EF92FF920F931F93A5
:1000B000CF93DF937B018C01D42EC22E2AE030E057
:1000C00040E050E02ED5605D60937C00C801B70130
:1000D0002AE030E040E050E024D5122F032FF42E28
:1000E000E52E622F732F842F952F2AE030E040E019
:1000F00050E017D5605D60937D00612F702F8F2DCC
:100100009E2D2AE030E040E050E00BD5122F032F67
:10011000F42EE52E622F732F842F952F2AE030E0E6
:1001200040E050E0FED4605D60937E00612F702F50
:100130008F2D9E2D2AE030E040E050E0F2D4122FC7
:10014000032FF42EE52E622F732F842F952F2AE094
:1001500030E040E050E0E5D4605D60937F00612FC7
:10016000702F8F2D9E2D2AE030E040E050E0D9D452
:10017000122F032FF42EE52E622F732F842F952F2D
:100180002AE030E040E050E0CCD4605D6093800035
:10019000612F702F8F2D9E2D2AE030E040E050E03F
:1001A000C0D4122F032FF42EE52E622F732F842F2D
:1001B000952F2AE030E040E050E0B3D4605D6093DA
:1001C0008100612F702F8F2D9E2D2AE030E040E0BE
:1001D00050E0A7D4122F032FF42EE52E622F732F99
:1001E000842F952F2AE030E040E050E09AD4605D03
:1001F00060938200612F702F8F2D9E2D2AE030E0BA
:1002000040E050E08ED4CA01B9012AE030E040E07D
:1002100050E087D4605D60938300DD2019F1CC202D
:10022000C1F003E810E0C0E0D0E088E0E82EF12C57
:10023000EC18F10808C0F801808193D02196015094
:100240001040CD1578F4EC16FD06A9F78CE289D0A4
:10025000F2CFC3E8D0E010E0888183D01F5F219700
:100260001D15D0F3DF91CF911F910F91FF90EF906B
:10027000DF90CF90089595ED9A95F1F7A89895B3F2
:10028000807F9F70982B95BBAA9A8AE08A95F1F798
:10029000AA98089595ED9A95F1F7A89895B3282F07
:1002A000207F9F70292B25BBAA9A2AE0922F9A952E
:1002B000F1F7AA98829595B3807F9F70982B95BB94
:1002C000AA9A2A95F1F7AA980895FC01A89A208184
:1002D000222301F145ED3AE03196842F8A95F1F71A
:1002E000A89A85B3922F907F8F70982B95BBAA9A6E
:1002F000832F8A95F1F7AA98229585B3207F8F7076
:10030000282B25BBAA9A832F8A95F1F7AA982081DA
:10031000222311F70895FC018491882309F1282FE5
:1003200045ED3AE0842F8A95F1F7A89A85B3922F8C
:10033000907F8F70982B95BBAA9A832F8A95F1F79F
:10034000AA98229585B3207F8F70822B85BBAA9AAD
:10035000832F8A95F1F7AA9831962491222311F7D9
:10036000089595ED9A95F1F7A89A95B3282F207FD7
:100370009F70292B25BBAA9A2AE0922F9A95F1F714
:10038000AA98829595B3807F9F70982B95BBAA9A67
:100390002A95F1F7AA98089585ED8A95F1F7A8981E
:1003A00085B38F7085BBAA9A2AE0822F8A95F1F7D0
:1003B000AA9881E0829595B3807F9F70892B85BB39
:1003C000AA9A2A95F1F7AA9880E49FE10197F1F79C
:1003D000089584B3806F84BB85B3806F85BB84B37D
:1003E000876084BB85B3876085BBA99820E030E037
:1003F00040E951E0CA010197F1F72F5F3F4F81E0DB
:1004000020393807B9F735ED832F8A95F1F7A89889
:1004100085B38F70806385BBAA9A2AE0822F8A9564
:10042000F1F7AA9880E49CE90197F1F7832F8A9568
:10043000F1F7A89885B38F70806385BBAA9A822F45
:100440008A95F1F7AA9880EA9FE00197F1F7832F48
:100450008A95F1F7A89885B38F70806385BBAA9AB7
:10046000822F8A95F1F7AA98832F8A95F1F7A89899
:1004700085B38F70806285BBAA9A822F8A95F1F727
:10048000AA98832F8A95F1F7A89885B38F70806218
:1004900085BBAA9A822F8A95F1F7AA9888E282955D
:1004A00095B3807F9F70892B85BBAA9A822F8A95EE
:1004B000F1F7AA98832F8A95F1F7A89885B38F70E2
:1004C00085BBAA9A822F8A95F1F7AA9888E082952F
:1004D00095B3807F9F70892B85BBAA9A822F8A95BE
:1004E000F1F7AA98832F8A95F1F7A89885B38F70B2
:1004F00085BBAA9A822F8A95F1F7AA988CE08295FB
:1005000095B3807F9F70892B85BBAA9A822F8A958D
:10051000F1F7AA98832F8A95F1F7A89885B38F7081
:1005200085BBAA9A822F8A95F1F7AA9881E08295D5
:1005300095B3807F9F70892B85BBAA9A822F8A955D
:10054000F1F7AA9880E49FE10197F1F73A95F1F766
:10055000A89885B38F7085BBAA9A822F8A95F1F7E8
:10056000AA9886E0829595B3807F9F70892B85BB82
:10057000AA9A2A95F1F7AA98089589B7846089BF45
:100580001FBC81E48EBD1DBC1CBC89B7816089BFC6
:1005900087E083BF12BE0895F89462B72091680087
:1005A00030916900ECB5FDB540916A0050916B0047
:1005B0007894809172009091730090937100809371
:1005C0007000609372001092730080917600909199
:1005D0007700909375008093740030937700209398
:1005E000760080917A0090917B00909379008093BF
:1005F000780050937B0040937A0080916E00909138
:100600006F0090936D0080936C00F0936F00E09307
:100610006E0008951F920F920FB60F9211248F93C0
:100620009F9380916A0090916B00019690936B006C
:1006300080936A009F918F910F900FBE0F901F9033
:1006400018951F920F920FB60F9211248F939F93BC
:100650008091680090916900019690936900809361
:1006600068009F918F910F900FBE0F901F9018956B
:100670006F927F928F929F92AF92BF92CF92DF92B2
:10068000EF92FF920F931F93F89420917A0030918C
:100690007B008091780090917900281B390B309372
:1006A0007B0020937A00A0906E00B0906F00CC2465
:1006B000DD2480916C0090916D00A0E0B0E0A81A5C
:1006C000B90ACA0ADB0A40E050E0A9013327222711
:1006D000A20EB31EC41ED51EE0907600F0907700E7
:1006E0008091740090917500E81AF90AF0927700F1
:1006F000E0927600609172007091730080E090E06B
:10070000209170003091710040E050E0621B730B4B
:10071000840B950B00E010E0102F0F2DFE2CEE2423
:100720006E0D7F1D801F911F2AE030E040E050E0F9
:10073000D9D13B014C01E5D020E034E244E75BE451
:100740006ED17B018C01C601B501DBD09B01AC01F0
:10075000C801B70142D0A9D060938400709385008E
:10076000809386009093870087E894DD60918400F1
:1007700070918500809186009091870048E021E08B
:1007800091DC88EC87DDC601B50148E020E08ADC19
:1007900080EC80DDC401B30147E020E083DC1092EF
:1007A00075001092740010927700109276001092EB
:1007B00079001092780010927B0010927A00789461
:1007C0001F910F91FF90EF90DF90CF90BF90AF906F
:1007D0009F908F907F906F9008950CD0E6C0DED0F0
:1007E00040F0D5D030F021F45F3F19F0C7C051116F
:1007F00010C1CAC0EBD098F39923C9F35523B1F3C4
:10080000951B550BBB27AA2762177307840738F07F
:100810009F5F5F4F220F331F441FAA1FA9F333D0DE
:100820000E2E3AF0E0E830D091505040E695001C92
:10083000CAF729D0FE2F27D0660F771F881FBB1F4E
:10084000261737074807AB07B0E809F0BB0B802D28
:10085000BF01FF2793585F4F2AF09E3F510568F074
:100860008DC0D7C05F3FECF3983EDCF3869577955B
:100870006795B795F7959F5FC9F7880F911D969576
:10088000879597F90895E1E0660F771F881FBB1FD2
:10089000621773078407BA0720F0621B730B840B7F
:1008A000BA0BEE1F88F7E095089598D088F09F570F
:1008B00090F0B92F9927B751A0F0D1F0660F771FAC
:1008C000881F991F1AF0BA95C9F712C0B13081F08C
:1008D0009FD0B1E008959CC0672F782F8827B85F1C
:1008E00039F0B93FCCF3869577956795B395D9F7ED
:1008F0003EF490958095709561957F4F8F4F9F4FF7
:100900000895E89409C097FB3EF490958095709502
:1009100061957F4F8F4F9F4F9923A9F0F92F96E94B
:10092000BB279395F695879577956795B795F111C0
:10093000F8CFFAF4BB0F11F460FF1BC06F5F7F4F5D
:100940008F4F9F4F16C0882311F096E911C077236F
:1009500021F09EE8872F762F05C0662371F096E878
:10096000862F70E060E02AF09A95660F771F881F47
:10097000DAF7880F9695879597F9089597F99F6705
:1009800080E870E060E008959FEF80EC0895002417
:100990000A941616170618060906089500240A94E4
:1009A00012161306140605060895092E0394000C6A
:1009B00011F4882352F0BB0F40F4BF2B11F460FFF9
:1009C00004C06F5F7F4F8F4F9F4F089557FD905822
:1009D000440F551F59F05F3F71F04795880F97FB03
:1009E000991F61F09F3F79F08795089512161306BD
:1009F0001406551FF2CF4695F1DF08C016161706EC
:100A00001806991FF1CF8695710561050894089520
:100A1000E894BB2766277727CB0197F908950BD079
:100A2000C4CFB5DF28F0BADF18F0952309F0A6CFC0
:100A3000ABCF1124EECFCADFA0F3959FD1F3950F72
:100A400050E0551F629FF001729FBB27F00DB11D52
:100A5000639FAA27F00DB11DAA1F649F6627B00DE2
:100A6000A11D661F829F2227B00DA11D621F739FCB
:100A7000B00DA11D621F839FA00D611D221F749FD9
:100A80003327A00D611D231F849F600D211D822F20
:100A9000762F6A2F11249F5750408AF0E1F0882367
:100AA0004AF0EE0FFF1FBB1F661F771F881F915074
:100AB0005040A9F79E3F510570F060CFAACF5F3F2D
:100AC000ECF3983EDCF3869577956795B795F795A7
:100AD000E7959F5FC1F7FE2B880F911D969587952F
:100AE00097F90895629FD001739FF001829FE00DF6
:100AF000F11D649FE00DF11D929FF00D839FF00D9D
:100B0000749FF00D659FF00D9927729FB00DE11D48
:100B1000F91F639FB00DE11DF91FBD01CF01112425
:100B20000895A1E21A2EAA1BBB1BFD010DC0AA1F2E
:100B3000BB1FEE1FFF1FA217B307E407F50720F046
:100B4000A21BB30BE40BF50B661F771F881F991FC1
:100B50001A9469F760957095809590959B01AC010A
:0A0B6000BD01CF010895F894FFCF06
:080B6A00467265713A2000009B
:00000001FF
