:1000000014C023C022C021C020C01FC01EC01DC0FC
:1000100021C137C11AC019C018C017C016C015C0F9
:1000200014C013C012C011C010C011241FBECFE5F0
:10003000D2E0DEBFCDBF10E0A0E6B0E001C01D926F
:10004000AA38B107E1F789D0B2C3DACF8F929F9275
:10005000AF92BF92CF92DF92EF92FF920F931F93D6
:10006000CF93DF93E62EF72E082F192F842E922E92
:10007000C6E7D0E00F2EFEE7CF2EF0E0DF2EF02D0A
:100080006E2D7F2D802F912F2AE030E040E050E050
:100090006CD3605D69936E2D7F2D802F912F2AE0A8
:1000A00030E040E050E061D3E22EF32E042F152F14
:1000B000CC15DD0529F78820E1F00DE710E0C0E060
:1000C000D0E0C92CDD24AA24BB246894A3F87501D0
:1000D000EC18FD08992029F0CE15DF0511F48CE20B
:1000E00015D0F801808112D0219601501040C8151A
:1000F00088F3DF91CF911F910F91FF90EF90DF90E8
:10010000CF90BF90AF909F908F9008959DE09A956B
:10011000F1F7E5E3F0E09081916090839081282FE2
:10012000207F9F70292B208390819460908321E011
:10013000922F9A95F1F790819B7F90838295908181
:10014000807F9F70892B80838081846080832A9543
:10015000F1F780818B7F80830895EF92FF920F9358
:100160001F93CF93DF9327D0789408E510E00F2EEC
:10017000F0E1EF2EF7E2FF2EF02DC0E9D1E0F8011B
:10018000808185FFFCCF28D09701CE010197F1F740
:1001900021503040D1F7809160009091610001962C
:1001A0009093610080936000F801808185FFFCCF0F
:1001B00013D07ED0E4CFE9E5F0E0808184608083D5
:1001C0001FBC81E48EBD1DBC1CBC8081816080830E
:1001D00087E083BF12BE0895F89462B72091620051
:1001E00030916300ECB5FDB540916400509165001D
:1001F000789480916C0090916D0090936B00809347
:100200006A0060936C0010926D0080917000909174
:10021000710090936F0080936E0030937100209373
:10022000700080917400909175009093730080939A
:100230007200509375004093740080916800909113
:1002400069009093670080936600F0936900E093E3
:10025000680008951F920F920FB60F9211248F938A
:100260009F93809164009091650001969093650042
:10027000809364009F918F910F900FBE0F901F90FD
:1002800018951F920F920FB60F9211248F939F9380
:100290008091620090916300019690936300809337
:1002A00062009F918F910F900FBE0F901F90189535
:1002B000AF92BF92CF92DF92EF92FF920F931F9374
:1002C000F8942091740030917500809172009091A3
:1002D0007300281B390B3093750020937400A09095
:1002E0006800B0906900CC24DD2480916600909174
:1002F0006700A0E0B0E0A81AB90ACA0ADB0A40E029
:1003000050E0A90133272227A20EB31EC41ED51E1A
:10031000A0928600B0928700C0928800D092890097
:10032000E0907000F090710080916E0090916F00ED
:10033000E81AF90AF0927100E092700060916C0086
:1003400070916D0080E090E020916A0030916B0028
:1003500040E050E0621B730B840B950B00E010E053
:10036000102F0F2DFE2CEE246E0D7F1D801F911F70
:100370002AE030E040E050E0D9D160937E007093F5
:100380007F008093800090938100DFD020E034E2F2
:1003900044E75BE468D17B018C01C601B501D5D08F
:1003A0009B01AC01C801B7013CD0A3D0609382008F
:1003B00070938300809384009093850048E021E04F
:1003C00045DE609186007091870080918800909151
:1003D000890048E020E03ADE60917E0070917F0065
:1003E000809180009091810047E020E02FDE109204
:1003F0006F0010926E0010927100109270001092B7
:10040000730010927200109275001092740078942C
:100410001F910F91FF90EF90DF90CF90BF90AF9022
:1004200008950CD0E6C0DED040F0D5D030F021F4F5
:100430005F3F19F0C7C0511110C1CAC0EBD098F38B
:100440009923C9F35523B1F3951B550BBB27AA2755
:1004500062177307840738F09F5F5F4F220F331FC7
:10046000441FAA1FA9F333D00E2E3AF0E0E830D093
:1004700091505040E695001CCAF729D0FE2F27D096
:10048000660F771F881FBB1F261737074807AB0764
:10049000B0E809F0BB0B802DBF01FF2793585F4FD9
:1004A0002AF09E3F510568F08DC0D7C05F3FECF346
:1004B000983EDCF3869577956795B795F7959F5F9E
:1004C000C9F7880F911D9695879597F90895E1E0F2
:1004D000660F771F881FBB1F621773078407BA0751
:1004E00020F0621B730B840BBA0BEE1F88F7E095AC
:1004F000089598D088F09F5790F0B92F9927B75159
:10050000A0F0D1F0660F771F881F991F1AF0BA95D7
:10051000C9F712C0B13081F09FD0B1E008959CC0FE
:10052000672F782F8827B85F39F0B93FCCF38695CD
:1005300077956795B395D9F73EF49095809570952A
:1005400061957F4F8F4F9F4F0895E89409C097FBA7
:100550003EF490958095709561957F4F8F4F9F4F9A
:100560009923A9F0F92F96E9BB279395F6958795DE
:1005700077956795B795F111F8CFFAF4BB0F11F4A1
:1005800060FF1BC06F5F7F4F8F4F9F4F16C0882348
:1005900011F096E911C0772321F09EE8872F762F7E
:1005A00005C0662371F096E8862F70E060E02AF0BF
:1005B0009A95660F771F881FDAF7880F96958795AB
:1005C00097F9089597F99F6780E870E060E00895D3
:1005D0009FEF80EC089500240A941616170618065B
:1005E0000906089500240A94121613061406050637
:1005F0000895092E0394000C11F4882352F0BB0FC8
:1006000040F4BF2B11F460FF04C06F5F7F4F8F4F2A
:100610009F4F089557FD9058440F551F59F05F3F65
:1006200071F04795880F97FB991F61F09F3F79F014
:1006300087950895121613061406551FF2CF469596
:10064000F1DF08C0161617061806991FF1CF869518
:100650007105610508940895E894BB2766277727FC
:10066000CB0197F908950BD0C4CFB5DF28F0BADFDE
:1006700018F0952309F0A6CFABCF1124EECFCADF37
:10068000A0F3959FD1F3950F50E0551F629FF001A5
:10069000729FBB27F00DB11D639FAA27F00DB11DFE
:1006A000AA1F649F6627B00DA11D661F829F222787
:1006B000B00DA11D621F739FB00DA11D621F839F0E
:1006C000A00D611D221F749F3327A00D611D231FE4
:1006D000849F600D211D822F762F6A2F11249F5732
:1006E00050408AF0E1F088234AF0EE0FFF1FBB1F55
:1006F000661F771F881F91505040A9F79E3F5105F4
:1007000070F060CFAACF5F3FECF3983EDCF38695A4
:1007100077956795B795F795E7959F5FC1F7FE2B9E
:10072000880F911D9695879597F90895629FD0013E
:10073000739FF001829FE00DF11D649FE00DF11D9C
:10074000929FF00D839FF00D749FF00D659FF00D4B
:100750009927729FB00DE11DF91F639FB00DE11D38
:10076000F91FBD01CF0111240895A1E21A2EAA1B81
:10077000BB1BFD010DC0AA1FBB1FEE1FFF1FA21751
:10078000B307E407F50720F0A21BB30BE40BF50B4E
:10079000661F771F881F991F1A9469F760957095D7
:1007A000809590959B01AC01BD01CF010895F8940F
:0207B000FFCF79
:00000001FF
